:100000000C9446000C9465000C9465000C946500FB
:100010000C9465000C9465000C9465000C946500CC
:100020000C9465000C9465000C9465000C946500BC
:100030000C9465000C94DE000C9465000C94650033
:100040000C9465000C9465000C9465000C9465009C
:100050000C9465000C9465000C9465000C9465008C
:100060000C9465000C9465000C9465000C9465007C
:100070000C9465000C9465000C9465000C9465006C
:100080000C9465000C9465000C94650011241FBE4F
:10009000CFEFD0E4DEBFCDBF11E0A0E0B1E0ECE1F6
:1000A000F4E000E00BBF02C007900D92A831B10749
:1000B000D9F721E0A8E1B1E001C01D92A732B20753
:1000C000E1F70E94D9010C940C020C940000CF932C
:1000D000DF9300D01F92CDB7DEB789837B836A831D
:1000E00089818A3031F48A819B81BC018DE00E9434
:1000F000670080EC90E0FC018081882F90E08072A6
:100100009927892BB1F386EC90E02981FC012083AB
:1001100080E090E00F900F900F90DF91CF910895C5
:10012000CF93DF93CDB7DEB781E890E02BE0FC0101
:10013000208388E890E02DE730E0FC0131832083C4
:100140008FE690E022E0FC01208384E890E0FC014F
:10015000118210828091190190911A01A0911B01C6
:10016000B0911C0180931D0190931E01A0931F016B
:10017000B09320018FE590E02FE530E0F901208178
:100180002068FC0120830000DF91CF910895CF9378
:10019000DF93CDB7DEB781E890E0FC01108200006C
:1001A000DF91CF910895CF93DF93CDB7DEB781E094
:1001B000809318010000DF91CF9108951F920F9254
:1001C00000905F000F92112400905B000F922F931C
:1001D0003F934F935F936F937F938F939F93AF93CF
:1001E000BF93EF93FF93CF93DF93CDB7DEB78091AB
:1001F0001D0190911E01A0911F01B0912001019756
:10020000A109B10980931D0190931E01A0931F01C4
:10021000B093200180911D0190911E01A0911F01BA
:10022000B0912001892B8A2B8B2B91F40E94D30053
:100230008091190190911A01A0911B01B0911C01AC
:1002400080931D0190931E01A0931F01B093200184
:100250000000DF91CF91FF91EF91BF91AF919F91FE
:100260008F917F916F915F914F913F912F910F905F
:1002700000925B000F9000925F000F901F90189506
:10028000CF93DF9300D000D0CDB7DEB769837A83F8
:100290008B839C8389819A81AB81BC818093190176
:1002A00090931A01A0931B01B0931C018091190136
:1002B00090911A01A0911B01B0911C0180931D0126
:1002C00090931E01A0931F01B093200100000F9096
:1002D0000F900F900F90DF91CF910895CF93DF9300
:1002E000CDB7DEB78091250190912601813091052F
:1002F00091F08130910520F0029709F43EC055C07D
:1003000081E090E0909326018093250110922201D4
:10031000109221014AC080912101909122018370A5
:100320009927880F991F825F9E4FFC0180819181E0
:100330008093240180911601282F30E080912101C3
:1003400090912201820F931F9093220180932101AB
:1003500081E090E090932601809325018091230114
:10036000882F90E081709927892BE1F082E090E05E
:10037000909326018093250115C082E090E0909330
:1003800026018093250180912301882F90E08170C0
:100390009927892B49F081E090E090932601809382
:1003A000250102C0000001C000000000DF91CF91D4
:1003B0000895CF93DF93CDB7DEB784E290E02FEFBF
:1003C000FC01208385E290E0FC0110826CE271E088
:1003D00080E090E00E9440010E94900082E290E064
:1003E00020E230E0F9012081FC01208382E290E0EC
:1003F000FC018081809323010E946E0185E290E0E0
:1004000020912401FC0120830000809118018823A1
:0C041000E1F310921801E2CFF894FFCF46
:10041C000000000200000000670000000000010066
:08042C000200040002000100BF
:00000001FF
