:100000000C9446000C9465000C9465000C946500FB
:100010000C9465000C9465000C9465000C946500CC
:100020000C9465000C9465000C9465000C946500BC
:100030000C9465000C9465000C9465000C946500AC
:100040000C9465000C9465000C9465000C9465009C
:100050000C9465000C9465000C9465000C9465008C
:100060000C9465000C9465000C9465000C9465007C
:100070000C9465000C9465000C9465000C9465006C
:100080000C9465000C9465000C94650011241FBE4F
:10009000CFEFD0E4DEBFCDBF11E0A0E0B1E0EEE6EF
:1000A000F7E000E00BBF02C007900D92A231B1074C
:1000B000D9F721E0A2E1B1E001C01D92AC31B20755
:1000C000E1F70E9478030C94B5030C940000CF93E1
:1000D000DF9300D01F92CDB7DEB789837B836A831D
:1000E00089818A3031F48A819B81BC018DE00E9434
:1000F000670080EC90E0FC018081882F90E08072A6
:100100009927892BB1F386EC90E02981FC012083AB
:1001100080E090E00F900F900F90DF91CF910895C5
:10012000CF93DF93CDB7DEB781E890E02BE0FC0101
:10013000208388E890E02DE730E0FC0131832083C4
:100140008FE690E022E0FC01208384E890E0FC014F
:100150001182108280910E0190910F01A0911001E7
:10016000B09111018093130190931401A093150194
:10017000B09316018FE590E02FE530E0F901208182
:100180002068FC0120830000DF91CF910895CF9378
:10019000DF93CDB7DEB781E890E0FC01108200006C
:1001A000DF91CF910895CF93DF93CDB7DEB781E094
:1001B000809312010000DF91CF910895CF93DF93D8
:1001C00000D0CDB7DEB79A838983809113019091D7
:1001D0001401A0911501B09116010197A109B1096F
:1001E0008093130190931401A0931501B09316010D
:1001F0008091130190911401A0911501B091160105
:10020000892B8A2B8B2B91F40E94D30080910E01B5
:1002100090910F01A0911001B091110180931301F1
:1002200090931401A0931501B093160100000F9054
:100230000F90DF91CF910895CF93DF9300D000D03E
:10024000CDB7DEB769837A838B839C8389819A815A
:10025000AB81BC8180930E0190930F01A09310019C
:10026000B093110180910E0190910F01A0911001A6
:10027000B09111018093130190931401A093150183
:10028000B093160100000F900F900F900F90DF9128
:10029000CF910895CF93DF93CDB7DEB780911A0148
:1002A00090911B018230910509F495C0833091052E
:1002B00028F4009759F00197A9F016C283309105F0
:1002C00009F411C1049709F495C10EC287E0809327
:1002D000180181E090E090931B0180931A01109225
:1002E000190102C2109219018FEF809318018091B9
:1002F0001701882F90E081709927892BC9F0809190
:100300001701882F90E082709927892B89F482E069
:1003100090E090931B0180931A018091180189301D
:1003200008F058C0809118018F5F8093180152C067
:1003300080911701882F90E081709927892BC1F453
:1003400080911701882F90E082709927892B81F086
:1003500083E090E090931B0180931A018091180133
:100360008823C1F18091180181508093180132C017
:1003700080911701882F90E081709927892B89F04F
:1003800080911701882F90E082709927892B49F07E
:1003900084E090E090931B0180931A011092180161
:1003A00019C080911701882F90E081709927892BBF
:1003B00009F093C180911701882F90E082709927EE
:1003C000892B09F08AC181E090E090931B01809312
:1003D0001A0183C182C180911701882F90E081703A
:1003E0009927892B51F180911701882F90E0827015
:1003F0009927892B11F582E090E090931B0180935F
:100400001A01809119018B3030F4809119018F5FAE
:100410008093190166C0809119018B3008F461C086
:1004200080911801893008F05CC0809118018F5FBD
:10043000809318011092190154C080911701882FE0
:1004400090E081709927892BD1F480911701882F32
:1004500090E082709927892B91F083E090E090934F
:100460001B0180931A0110921901809118018823B1
:10047000C9F18091180181508093180133C0809197
:100480001701882F90E081709927892B89F080913E
:100490001701882F90E082709927892B49F084E01A
:1004A00090E090931B0180931A01109218011AC0DA
:1004B00080911701882F90E081709927892B09F08E
:1004C0000EC180911701882F90E082709927892BA7
:1004D00009F005C181E090E090931B0180931A011F
:1004E000FEC00000FCC080911701882F90E0817051
:1004F0009927892BD9F080911701882F90E082707D
:100500009927892B99F41092190182E090E0909339
:100510001B0180931A0180911801893008F069C08D
:10052000809118018F5F8093180163C0809117013B
:10053000882F90E081709927892B41F580911701D0
:10054000882F90E082709927892B01F183E090E059
:1005500090931B0180931A01809119018B3028F42C
:10056000809119018F5F80931901809119018B305F
:1005700008F43EC0809118018823D1F180911801C0
:100580008150809318011092190132C08091170197
:10059000882F90E081709927892B89F0809117012D
:1005A000882F90E082709927892B49F084E090E0B1
:1005B00090931B0180931A01109218011AC0809128
:1005C0001701882F90E081709927892B09F089C045
:1005D00080911701882F90E082709927892B09F06C
:1005E00080C081E090E090931B0180931A0179C054
:1005F000000077C01092190180911701882F90E0B8
:1006000081709927892B89F080911701882F90E0BC
:1006100082709927892B49F084E090E090931B0128
:1006200080931A011092180157C080911701882FEA
:1006300090E081709927892B79F480911701882F98
:1006400090E082709927892B39F481E090E09093B3
:100650001B0180931A0140C080911701882F90E000
:1006600081709927892BC1F080911701882F90E024
:1006700082709927892B81F482E090E090931B018E
:1006800080931A0180911801893030F5809118010A
:100690008F5F8093180120C080911701882F90E010
:1006A00081709927892BF9F480911701882F90E0A8
:1006B00082709927892BB9F082E090E090931B011A
:1006C00080931A0180911801882369F080911801A4
:1006D00081508093180107C006C0000005C00000CB
:1006E00003C0000001C000000000DF91CF91089519
:1006F000CF93DF93CDB7DEB781E290E0FC011082AB
:100700001092170184E290E02FEFFC0120831092F9
:10071000180164E670E080E090E00E941C010E94F5
:10072000900010921B0110921A0182E290E020E2E8
:1007300030E0F90120812095FC01208382E290E0E5
:10074000FC0180818370809317010E944A0185E239
:1007500090E020911801FC0120830000809112019B
:0E0760008823E1F310921201E0CFF894FFCF4E
:10076E000000000200000000670000000000010011
:02077E00000079
:00000001FF
